{
  "address": "0x68b2b91852B0235A574521FFA00E061c0DEc9859",
  "abi": [
    {
      "inputs": [
        {
          "internalType": "address",
          "name": "vrfCoordinatorV2",
          "type": "address"
        },
        {
          "internalType": "uint64",
          "name": "subscriptionId",
          "type": "uint64"
        },
        {
          "internalType": "bytes32",
          "name": "gasLane",
          "type": "bytes32"
        },
        {
          "internalType": "uint256",
          "name": "interval",
          "type": "uint256"
        },
        {
          "internalType": "uint256",
          "name": "entranceFee",
          "type": "uint256"
        },
        {
          "internalType": "uint32",
          "name": "callbackGasLimit",
          "type": "uint32"
        }
      ],
      "stateMutability": "nonpayable",
      "type": "constructor"
    },
    {
      "inputs": [
        {
          "internalType": "address",
          "name": "have",
          "type": "address"
        },
        {
          "internalType": "address",
          "name": "want",
          "type": "address"
        }
      ],
      "name": "OnlyCoordinatorCanFulfill",
      "type": "error"
    },
    {
      "inputs": [],
      "name": "Raffle__NotEnoughETHEntered",
      "type": "error"
    },
    {
      "inputs": [],
      "name": "Raffle__NotOpen",
      "type": "error"
    },
    {
      "inputs": [],
      "name": "Raffle__TransferFailed",
      "type": "error"
    },
    {
      "inputs": [
        {
          "internalType": "uint256",
          "name": "currentBalance",
          "type": "uint256"
        },
        {
          "internalType": "uint256",
          "name": "numPlayer",
          "type": "uint256"
        },
        {
          "internalType": "uint256",
          "name": "raffleState",
          "type": "uint256"
        }
      ],
      "name": "Raffle__UpkeepNotNeeded",
      "type": "error"
    },
    {
      "anonymous": false,
      "inputs": [
        {
          "indexed": true,
          "internalType": "address",
          "name": "player",
          "type": "address"
        }
      ],
      "name": "RaffleEnter",
      "type": "event"
    },
    {
      "anonymous": false,
      "inputs": [
        {
          "indexed": true,
          "internalType": "uint256",
          "name": "requestId",
          "type": "uint256"
        }
      ],
      "name": "RequestedRaffleWinner",
      "type": "event"
    },
    {
      "anonymous": false,
      "inputs": [
        {
          "indexed": true,
          "internalType": "address",
          "name": "player",
          "type": "address"
        }
      ],
      "name": "WinnerPicked",
      "type": "event"
    },
    {
      "inputs": [
        {
          "internalType": "bytes",
          "name": "",
          "type": "bytes"
        }
      ],
      "name": "checkUpkeep",
      "outputs": [
        {
          "internalType": "bool",
          "name": "upkeepNeeded",
          "type": "bool"
        },
        {
          "internalType": "bytes",
          "name": "",
          "type": "bytes"
        }
      ],
      "stateMutability": "view",
      "type": "function"
    },
    {
      "inputs": [],
      "name": "enterRaffle",
      "outputs": [],
      "stateMutability": "payable",
      "type": "function"
    },
    {
      "inputs": [],
      "name": "getEntranceFee",
      "outputs": [
        {
          "internalType": "uint256",
          "name": "",
          "type": "uint256"
        }
      ],
      "stateMutability": "view",
      "type": "function"
    },
    {
      "inputs": [],
      "name": "getInterval",
      "outputs": [
        {
          "internalType": "uint256",
          "name": "",
          "type": "uint256"
        }
      ],
      "stateMutability": "view",
      "type": "function"
    },
    {
      "inputs": [],
      "name": "getLatestTimeStamp",
      "outputs": [
        {
          "internalType": "uint256",
          "name": "",
          "type": "uint256"
        }
      ],
      "stateMutability": "view",
      "type": "function"
    },
    {
      "inputs": [],
      "name": "getNumWords",
      "outputs": [
        {
          "internalType": "uint256",
          "name": "",
          "type": "uint256"
        }
      ],
      "stateMutability": "pure",
      "type": "function"
    },
    {
      "inputs": [],
      "name": "getNumberOfPlayers",
      "outputs": [
        {
          "internalType": "uint256",
          "name": "",
          "type": "uint256"
        }
      ],
      "stateMutability": "view",
      "type": "function"
    },
    {
      "inputs": [
        {
          "internalType": "uint256",
          "name": "index",
          "type": "uint256"
        }
      ],
      "name": "getPlayer",
      "outputs": [
        {
          "internalType": "address",
          "name": "",
          "type": "address"
        }
      ],
      "stateMutability": "view",
      "type": "function"
    },
    {
      "inputs": [],
      "name": "getRaffleState",
      "outputs": [
        {
          "internalType": "enum Raffle.RaffleState",
          "name": "",
          "type": "uint8"
        }
      ],
      "stateMutability": "view",
      "type": "function"
    },
    {
      "inputs": [],
      "name": "getRecentWinner",
      "outputs": [
        {
          "internalType": "address",
          "name": "",
          "type": "address"
        }
      ],
      "stateMutability": "view",
      "type": "function"
    },
    {
      "inputs": [],
      "name": "getRequestConfirmations",
      "outputs": [
        {
          "internalType": "uint256",
          "name": "",
          "type": "uint256"
        }
      ],
      "stateMutability": "view",
      "type": "function"
    },
    {
      "inputs": [
        {
          "internalType": "bytes",
          "name": "",
          "type": "bytes"
        }
      ],
      "name": "performUpkeep",
      "outputs": [],
      "stateMutability": "nonpayable",
      "type": "function"
    },
    {
      "inputs": [
        {
          "internalType": "uint256",
          "name": "requestId",
          "type": "uint256"
        },
        {
          "internalType": "uint256[]",
          "name": "randomWords",
          "type": "uint256[]"
        }
      ],
      "name": "rawFulfillRandomWords",
      "outputs": [],
      "stateMutability": "nonpayable",
      "type": "function"
    },
    {
      "inputs": [
        {
          "internalType": "uint256",
          "name": "",
          "type": "uint256"
        }
      ],
      "name": "s_randomWords",
      "outputs": [
        {
          "internalType": "uint256",
          "name": "",
          "type": "uint256"
        }
      ],
      "stateMutability": "view",
      "type": "function"
    },
    {
      "inputs": [],
      "name": "s_requestId",
      "outputs": [
        {
          "internalType": "uint256",
          "name": "",
          "type": "uint256"
        }
      ],
      "stateMutability": "view",
      "type": "function"
    }
  ],
  "transactionHash": "0x472fd5674c042f81f9d605e0103102891cea96d13a929e0d1788517d5487830a",
  "args": [
    "0x6168499c0cFfCaCD319c818142124B7A15E857ab",
    "0",
    "0xd89b2bf150e3b9e13446986e571fb9cab24b13cea0a43ea20a6049a85cc807cc",
    "30",
    "10000000000000000",
    "500000"
  ],
  "numDeployments": 3,
  "solcInputHash": "5ea322965767b2e659bcaac170976510",
  "bytecode": "0x610140604052736168499c0cffcacd319c818142124b7a15e857ab6000806101000a81548173ffffffffffffffffffffffffffffffffffffffff021916908373ffffffffffffffffffffffffffffffffffffffff1602179055507fd89b2bf150e3b9e13446986e571fb9cab24b13cea0a43ea20a6049a85cc807cc60001b6001556003600260006101000a81548161ffff021916908361ffff160217905550348015620000ab57600080fd5b506040516200185f3803806200185f8339818101604052810190620000d1919062000244565b858073ffffffffffffffffffffffffffffffffffffffff1660808173ffffffffffffffffffffffffffffffffffffffff1660601b81525050508573ffffffffffffffffffffffffffffffffffffffff1660a08173ffffffffffffffffffffffffffffffffffffffff1660601b815250508360e081815250508261012081815250508467ffffffffffffffff1660c08167ffffffffffffffff1660c01b81525050816008819055506000600a60006101000a81548160ff02191690836001811115620001a157620001a06200034c565b5b0217905550426006819055508063ffffffff166101008163ffffffff1660e01b8152505050505050505062000402565b600081519050620001e28162000380565b92915050565b600081519050620001f9816200039a565b92915050565b6000815190506200021081620003b4565b92915050565b6000815190506200022781620003ce565b92915050565b6000815190506200023e81620003e8565b92915050565b60008060008060008060c087890312156200026457620002636200037b565b5b60006200027489828a01620001d1565b96505060206200028789828a016200022d565b95505060406200029a89828a01620001e8565b9450506060620002ad89828a01620001ff565b9350506080620002c089828a01620001ff565b92505060a0620002d389828a0162000216565b9150509295509295509295565b6000620002ed82620002fe565b9050919050565b6000819050919050565b600073ffffffffffffffffffffffffffffffffffffffff82169050919050565b6000819050919050565b600063ffffffff82169050919050565b600067ffffffffffffffff82169050919050565b7f4e487b7100000000000000000000000000000000000000000000000000000000600052602160045260246000fd5b600080fd5b6200038b81620002e0565b81146200039757600080fd5b50565b620003a581620002f4565b8114620003b157600080fd5b50565b620003bf816200031e565b8114620003cb57600080fd5b50565b620003d98162000328565b8114620003e557600080fd5b50565b620003f38162000338565b8114620003ff57600080fd5b50565b60805160601c60a05160601c60c05160c01c60e0516101005160e01c610120516113f36200046c60003960008181610867015261091001526000610707015260006106b4015260006106d5015260006106780152600081816103a701526103fb01526113f36000f3fe6080604052600436106100e85760003560e01c806353a2c19a1161008a578063e55ae4e811610059578063e55ae4e8146102b4578063e89e106a146102f1578063f6eaffc81461031c578063fd6673f514610359576100e8565b806353a2c19a146101f55780635f1b0fd8146102205780636e04ff0d1461024b57806391ad27b414610289576100e8565b80632cfcc539116100c65780632cfcc5391461016c578063320229eb146101765780634585e33b146101a1578063473f1ddc146101ca576100e8565b806309bc33a7146100ed578063115cbaf5146101185780631fe543e314610143575b600080fd5b3480156100f957600080fd5b50610102610384565b60405161010f9190610ff9565b60405180910390f35b34801561012457600080fd5b5061012d61038e565b60405161013a9190610fde565b60405180910390f35b34801561014f57600080fd5b5061016a60048036038101906101659190610dd2565b6103a5565b005b610174610465565b005b34801561018257600080fd5b5061018b6105b6565b6040516101989190610ff9565b60405180910390f35b3480156101ad57600080fd5b506101c860048036038101906101c39190610ce2565b6105c0565b005b3480156101d657600080fd5b506101df6107cf565b6040516101ec9190610f17565b60405180910390f35b34801561020157600080fd5b5061020a6107f9565b6040516102179190610ff9565b60405180910390f35b34801561022c57600080fd5b50610235610808565b6040516102429190610ff9565b60405180910390f35b34801561025757600080fd5b50610272600480360381019061026d9190610d2f565b610824565b604051610280929190610f5b565b60405180910390f35b34801561029557600080fd5b5061029e61090c565b6040516102ab9190610ff9565b60405180910390f35b3480156102c057600080fd5b506102db60048036038101906102d69190610d78565b610934565b6040516102e89190610f17565b60405180910390f35b3480156102fd57600080fd5b5061030661097c565b6040516103139190610ff9565b60405180910390f35b34801561032857600080fd5b50610343600480360381019061033e9190610d78565b610982565b6040516103509190610ff9565b60405180910390f35b34801561036557600080fd5b5061036e6109a6565b60405161037b9190610ff9565b60405180910390f35b6000600854905090565b6000600a60009054906101000a900460ff16905090565b7f000000000000000000000000000000000000000000000000000000000000000073ffffffffffffffffffffffffffffffffffffffff163373ffffffffffffffffffffffffffffffffffffffff161461045757337f00000000000000000000000000000000000000000000000000000000000000006040517f1cf993f400000000000000000000000000000000000000000000000000000000815260040161044e929190610f32565b60405180910390fd5b61046182826109b3565b5050565b6008543410156104a1576040517fbd4e069500000000000000000000000000000000000000000000000000000000815260040160405180910390fd5b600060018111156104b5576104b46112d3565b5b600a60009054906101000a900460ff1660018111156104d7576104d66112d3565b5b1461050e576040517f1425571c00000000000000000000000000000000000000000000000000000000815260040160405180910390fd5b6009339080600181540180825580915050600190039060005260206000200160009091909190916101000a81548173ffffffffffffffffffffffffffffffffffffffff021916908373ffffffffffffffffffffffffffffffffffffffff1602179055503373ffffffffffffffffffffffffffffffffffffffff167f0805e1d667bddb8a95f0f09880cf94f403fb596ce79928d9f29b74203ba284d460405160405180910390a2565b6000600654905090565b60006105da60405180602001604052806000815250610824565b509050806106495747600980549050600a60009054906101000a900460ff16600181111561060b5761060a6112d3565b5b6040517f584327aa00000000000000000000000000000000000000000000000000000000815260040161064093929190611014565b60405180910390fd5b6001600a60006101000a81548160ff0219169083600181111561066f5761066e6112d3565b5b021790555060007f000000000000000000000000000000000000000000000000000000000000000073ffffffffffffffffffffffffffffffffffffffff16635d3b1d307f00000000000000000000000000000000000000000000000000000000000000007f0000000000000000000000000000000000000000000000000000000000000000600260009054906101000a900461ffff167f000000000000000000000000000000000000000000000000000000000000000060026040518663ffffffff1660e01b8152600401610748959493929190610f8b565b602060405180830381600087803b15801561076257600080fd5b505af1158015610776573d6000803e3d6000fd5b505050506040513d601f19601f8201168201806040525081019061079a9190610da5565b9050807fcd6e45c8998311cab7e9d4385596cac867e20a0587194b954fa3a731c93ce78b60405160405180910390a250505050565b6000600760009054906101000a900473ffffffffffffffffffffffffffffffffffffffff16905090565b6000600263ffffffff16905090565b6000600260009054906101000a900461ffff1661ffff16905090565b600060606000600a60009054906101000a900460ff16600181111561084c5761084b6112d3565b5b600060018111156108605761085f6112d3565b5b14905060007f00000000000000000000000000000000000000000000000000000000000000006006544261089491906110f4565b119050600080600980549050119050600080471190508280156108b45750835b80156108bd5750805b80156108c65750815b9550856040518060400160405280600381526020017f30783000000000000000000000000000000000000000000000000000000000008152509550955050505050915091565b60007f0000000000000000000000000000000000000000000000000000000000000000905090565b60006009828154811061094a57610949611302565b5b9060005260206000200160009054906101000a900473ffffffffffffffffffffffffffffffffffffffff169050919050565b60045481565b6003818154811061099257600080fd5b906000526020600020016000915090505481565b6000600980549050905090565b6000600980549050826000815181106109cf576109ce611302565b5b60200260200101516109e19190611244565b90506000600982815481106109f9576109f8611302565b5b9060005260206000200160009054906101000a900473ffffffffffffffffffffffffffffffffffffffff16905080600760006101000a81548173ffffffffffffffffffffffffffffffffffffffff021916908373ffffffffffffffffffffffffffffffffffffffff16021790555060008173ffffffffffffffffffffffffffffffffffffffff1647604051610a8d90610f02565b60006040518083038185875af1925050503d8060008114610aca576040519150601f19603f3d011682016040523d82523d6000602084013e610acf565b606091505b5050905080610b0a576040517fa1d04b3900000000000000000000000000000000000000000000000000000000815260040160405180910390fd5b8173ffffffffffffffffffffffffffffffffffffffff167f5b690ec4a06fe979403046eaeea5b3ce38524683c3001f662c8b5a829632f7df60405160405180910390a25050505050565b6000610b67610b6284611070565b61104b565b90508083825260208201905082856020860282011115610b8a57610b8961136a565b5b60005b85811015610bba5781610ba08882610cb8565b845260208401935060208301925050600181019050610b8d565b5050509392505050565b6000610bd7610bd28461109c565b61104b565b905082815260208101848484011115610bf357610bf261136f565b5b610bfe8482856111d1565b509392505050565b600082601f830112610c1b57610c1a611365565b5b8135610c2b848260208601610b54565b91505092915050565b60008083601f840112610c4a57610c49611365565b5b8235905067ffffffffffffffff811115610c6757610c66611360565b5b602083019150836001820283011115610c8357610c8261136a565b5b9250929050565b600082601f830112610c9f57610c9e611365565b5b8135610caf848260208601610bc4565b91505092915050565b600081359050610cc7816113a6565b92915050565b600081519050610cdc816113a6565b92915050565b60008060208385031215610cf957610cf8611379565b5b600083013567ffffffffffffffff811115610d1757610d16611374565b5b610d2385828601610c34565b92509250509250929050565b600060208284031215610d4557610d44611379565b5b600082013567ffffffffffffffff811115610d6357610d62611374565b5b610d6f84828501610c8a565b91505092915050565b600060208284031215610d8e57610d8d611379565b5b6000610d9c84828501610cb8565b91505092915050565b600060208284031215610dbb57610dba611379565b5b6000610dc984828501610ccd565b91505092915050565b60008060408385031215610de957610de8611379565b5b6000610df785828601610cb8565b925050602083013567ffffffffffffffff811115610e1857610e17611374565b5b610e2485828601610c06565b9150509250929050565b610e3781611128565b82525050565b610e468161113a565b82525050565b610e5581611146565b82525050565b6000610e66826110cd565b610e7081856110d8565b9350610e808185602086016111e0565b610e898161137e565b840191505092915050565b610e9d816111bf565b82525050565b6000610eb06000836110e9565b9150610ebb8261138f565b600082019050919050565b610ecf81611163565b82525050565b610ede81611191565b82525050565b610eed8161119b565b82525050565b610efc816111ab565b82525050565b6000610f0d82610ea3565b9150819050919050565b6000602082019050610f2c6000830184610e2e565b92915050565b6000604082019050610f476000830185610e2e565b610f546020830184610e2e565b9392505050565b6000604082019050610f706000830185610e3d565b8181036020830152610f828184610e5b565b90509392505050565b600060a082019050610fa06000830188610e4c565b610fad6020830187610ef3565b610fba6040830186610ec6565b610fc76060830185610ee4565b610fd46080830184610ee4565b9695505050505050565b6000602082019050610ff36000830184610e94565b92915050565b600060208201905061100e6000830184610ed5565b92915050565b60006060820190506110296000830186610ed5565b6110366020830185610ed5565b6110436040830184610ed5565b949350505050565b6000611055611066565b90506110618282611213565b919050565b6000604051905090565b600067ffffffffffffffff82111561108b5761108a611331565b5b602082029050602081019050919050565b600067ffffffffffffffff8211156110b7576110b6611331565b5b6110c08261137e565b9050602081019050919050565b600081519050919050565b600082825260208201905092915050565b600081905092915050565b60006110ff82611191565b915061110a83611191565b92508282101561111d5761111c611275565b5b828203905092915050565b600061113382611171565b9050919050565b60008115159050919050565b6000819050919050565b600081905061115e82611392565b919050565b600061ffff82169050919050565b600073ffffffffffffffffffffffffffffffffffffffff82169050919050565b6000819050919050565b600063ffffffff82169050919050565b600067ffffffffffffffff82169050919050565b60006111ca82611150565b9050919050565b82818337600083830152505050565b60005b838110156111fe5780820151818401526020810190506111e3565b8381111561120d576000848401525b50505050565b61121c8261137e565b810181811067ffffffffffffffff8211171561123b5761123a611331565b5b80604052505050565b600061124f82611191565b915061125a83611191565b92508261126a576112696112a4565b5b828206905092915050565b7f4e487b7100000000000000000000000000000000000000000000000000000000600052601160045260246000fd5b7f4e487b7100000000000000000000000000000000000000000000000000000000600052601260045260246000fd5b7f4e487b7100000000000000000000000000000000000000000000000000000000600052602160045260246000fd5b7f4e487b7100000000000000000000000000000000000000000000000000000000600052603260045260246000fd5b7f4e487b7100000000000000000000000000000000000000000000000000000000600052604160045260246000fd5b600080fd5b600080fd5b600080fd5b600080fd5b600080fd5b600080fd5b6000601f19601f8301169050919050565b50565b600281106113a3576113a26112d3565b5b50565b6113af81611191565b81146113ba57600080fd5b5056fea2646970667358221220d56bd57f125b7ed3b997ceafb5edcbe8cf624ec8940dfa960fb7ad386766f24064736f6c63430008070033",
  "devdoc": {
    "kind": "dev",
    "methods": {
      "checkUpkeep(bytes)": {
        "details": "This is the function that the Chainlink Keeper nodes call they look for `upkeepNeeded` to return True. the following should be true for this to return true: 1. The time interval has passed between raffle runs. 2. The lottery is open. 3. The contract has ETH. 4. Implicity, your subscription is funded with LINK."
      },
      "performUpkeep(bytes)": {
        "details": "Once `checkUpkeep` is returning `true`, this function is called and it kicks off a Chainlink VRF call to get a random winner."
      }
    },
    "version": 1
  },
  "userdoc": {
    "kind": "user",
    "methods": {},
    "version": 1
  },
  "storageLayout": {
    "storage": [
      {
        "astId": 201,
        "contract": "contracts/Raffle.sol:Raffle",
        "label": "vrfCoordinator",
        "offset": 0,
        "slot": "0",
        "type": "t_address"
      },
      {
        "astId": 204,
        "contract": "contracts/Raffle.sol:Raffle",
        "label": "keyHash",
        "offset": 0,
        "slot": "1",
        "type": "t_bytes32"
      },
      {
        "astId": 209,
        "contract": "contracts/Raffle.sol:Raffle",
        "label": "REQUEST_CONFIRMATIONS",
        "offset": 0,
        "slot": "2",
        "type": "t_uint16"
      },
      {
        "astId": 215,
        "contract": "contracts/Raffle.sol:Raffle",
        "label": "s_randomWords",
        "offset": 0,
        "slot": "3",
        "type": "t_array(t_uint256)dyn_storage"
      },
      {
        "astId": 217,
        "contract": "contracts/Raffle.sol:Raffle",
        "label": "s_requestId",
        "offset": 0,
        "slot": "4",
        "type": "t_uint256"
      },
      {
        "astId": 219,
        "contract": "contracts/Raffle.sol:Raffle",
        "label": "s_owner",
        "offset": 0,
        "slot": "5",
        "type": "t_address"
      },
      {
        "astId": 223,
        "contract": "contracts/Raffle.sol:Raffle",
        "label": "s_lastTimeStamp",
        "offset": 0,
        "slot": "6",
        "type": "t_uint256"
      },
      {
        "astId": 225,
        "contract": "contracts/Raffle.sol:Raffle",
        "label": "s_recentWinner",
        "offset": 0,
        "slot": "7",
        "type": "t_address"
      },
      {
        "astId": 227,
        "contract": "contracts/Raffle.sol:Raffle",
        "label": "i_entranceFee",
        "offset": 0,
        "slot": "8",
        "type": "t_uint256"
      },
      {
        "astId": 230,
        "contract": "contracts/Raffle.sol:Raffle",
        "label": "s_players",
        "offset": 0,
        "slot": "9",
        "type": "t_array(t_address_payable)dyn_storage"
      },
      {
        "astId": 233,
        "contract": "contracts/Raffle.sol:Raffle",
        "label": "s_raffleState",
        "offset": 0,
        "slot": "10",
        "type": "t_enum(RaffleState)191"
      }
    ],
    "types": {
      "t_address": {
        "encoding": "inplace",
        "label": "address",
        "numberOfBytes": "20"
      },
      "t_address_payable": {
        "encoding": "inplace",
        "label": "address payable",
        "numberOfBytes": "20"
      },
      "t_array(t_address_payable)dyn_storage": {
        "base": "t_address_payable",
        "encoding": "dynamic_array",
        "label": "address payable[]",
        "numberOfBytes": "32"
      },
      "t_array(t_uint256)dyn_storage": {
        "base": "t_uint256",
        "encoding": "dynamic_array",
        "label": "uint256[]",
        "numberOfBytes": "32"
      },
      "t_bytes32": {
        "encoding": "inplace",
        "label": "bytes32",
        "numberOfBytes": "32"
      },
      "t_enum(RaffleState)191": {
        "encoding": "inplace",
        "label": "enum Raffle.RaffleState",
        "numberOfBytes": "1"
      },
      "t_uint16": {
        "encoding": "inplace",
        "label": "uint16",
        "numberOfBytes": "2"
      },
      "t_uint256": {
        "encoding": "inplace",
        "label": "uint256",
        "numberOfBytes": "32"
      }
    }
  }
}